{
    "_format": "hh-sol-artifact-1",
    "contractName": "RewardCardNFT",
    "sourceName": "contracts/RewardCardNFT.sol",
    "abi": [
        {
            "inputs": [],
            "stateMutability": "nonpayable",
            "type": "constructor"
        },
        {
            "anonymous": false,
            "inputs": [
                {
                    "indexed": true,
                    "internalType": "address",
                    "name": "owner",
                    "type": "address"
                },
                {
                    "indexed": true,
                    "internalType": "address",
                    "name": "approved",
                    "type": "address"
                },
                {
                    "indexed": true,
                    "internalType": "uint256",
                    "name": "tokenId",
                    "type": "uint256"
                }
            ],
            "name": "Approval",
            "type": "event"
        },
        {
            "anonymous": false,
            "inputs": [
                {
                    "indexed": true,
                    "internalType": "address",
                    "name": "owner",
                    "type": "address"
                },
                {
                    "indexed": true,
                    "internalType": "address",
                    "name": "operator",
                    "type": "address"
                },
                {
                    "indexed": false,
                    "internalType": "bool",
                    "name": "approved",
                    "type": "bool"
                }
            ],
            "name": "ApprovalForAll",
            "type": "event"
        },
        {
            "anonymous": false,
            "inputs": [
                {
                    "indexed": true,
                    "internalType": "address",
                    "name": "previousOwner",
                    "type": "address"
                },
                {
                    "indexed": true,
                    "internalType": "address",
                    "name": "newOwner",
                    "type": "address"
                }
            ],
            "name": "OwnershipTransferred",
            "type": "event"
        },
        {
            "anonymous": false,
            "inputs": [
                {
                    "indexed": true,
                    "internalType": "address",
                    "name": "from",
                    "type": "address"
                },
                {
                    "indexed": true,
                    "internalType": "address",
                    "name": "to",
                    "type": "address"
                },
                {
                    "indexed": true,
                    "internalType": "uint256",
                    "name": "tokenId",
                    "type": "uint256"
                }
            ],
            "name": "Transfer",
            "type": "event"
        },
        {
            "inputs": [
                {
                    "internalType": "address",
                    "name": "to",
                    "type": "address"
                },
                {
                    "internalType": "uint256",
                    "name": "tokenId",
                    "type": "uint256"
                }
            ],
            "name": "approve",
            "outputs": [],
            "stateMutability": "nonpayable",
            "type": "function"
        },
        {
            "inputs": [
                {
                    "internalType": "address",
                    "name": "owner",
                    "type": "address"
                }
            ],
            "name": "balanceOf",
            "outputs": [
                {
                    "internalType": "uint256",
                    "name": "",
                    "type": "uint256"
                }
            ],
            "stateMutability": "view",
            "type": "function"
        },
        {
            "inputs": [
                {
                    "internalType": "string",
                    "name": "_characterName",
                    "type": "string"
                },
                {
                    "internalType": "string",
                    "name": "user",
                    "type": "string"
                },
                {
                    "internalType": "uint256",
                    "name": "level",
                    "type": "uint256"
                }
            ],
            "name": "encodeBaseSVG",
            "outputs": [
                {
                    "internalType": "string",
                    "name": "",
                    "type": "string"
                }
            ],
            "stateMutability": "pure",
            "type": "function"
        },
        {
            "inputs": [
                {
                    "internalType": "string",
                    "name": "_svg",
                    "type": "string"
                },
                {
                    "internalType": "string",
                    "name": "_contractName",
                    "type": "string"
                }
            ],
            "name": "encodeJson",
            "outputs": [
                {
                    "internalType": "string",
                    "name": "",
                    "type": "string"
                }
            ],
            "stateMutability": "pure",
            "type": "function"
        },
        {
            "inputs": [
                {
                    "internalType": "uint256",
                    "name": "tokenId",
                    "type": "uint256"
                }
            ],
            "name": "getApproved",
            "outputs": [
                {
                    "internalType": "address",
                    "name": "",
                    "type": "address"
                }
            ],
            "stateMutability": "view",
            "type": "function"
        },
        {
            "inputs": [
                {
                    "internalType": "address",
                    "name": "owner",
                    "type": "address"
                },
                {
                    "internalType": "address",
                    "name": "operator",
                    "type": "address"
                }
            ],
            "name": "isApprovedForAll",
            "outputs": [
                {
                    "internalType": "bool",
                    "name": "",
                    "type": "bool"
                }
            ],
            "stateMutability": "view",
            "type": "function"
        },
        {
            "inputs": [
                {
                    "internalType": "string",
                    "name": "_characterName",
                    "type": "string"
                },
                {
                    "internalType": "string",
                    "name": "user",
                    "type": "string"
                },
                {
                    "internalType": "uint256",
                    "name": "level",
                    "type": "uint256"
                },
                {
                    "internalType": "address",
                    "name": "reciever",
                    "type": "address"
                }
            ],
            "name": "makeNFT",
            "outputs": [],
            "stateMutability": "nonpayable",
            "type": "function"
        },
        {
            "inputs": [],
            "name": "name",
            "outputs": [
                {
                    "internalType": "string",
                    "name": "",
                    "type": "string"
                }
            ],
            "stateMutability": "view",
            "type": "function"
        },
        {
            "inputs": [],
            "name": "owner",
            "outputs": [
                {
                    "internalType": "address",
                    "name": "",
                    "type": "address"
                }
            ],
            "stateMutability": "view",
            "type": "function"
        },
        {
            "inputs": [
                {
                    "internalType": "uint256",
                    "name": "tokenId",
                    "type": "uint256"
                }
            ],
            "name": "ownerOf",
            "outputs": [
                {
                    "internalType": "address",
                    "name": "",
                    "type": "address"
                }
            ],
            "stateMutability": "view",
            "type": "function"
        },
        {
            "inputs": [],
            "name": "renounceOwnership",
            "outputs": [],
            "stateMutability": "nonpayable",
            "type": "function"
        },
        {
            "inputs": [
                {
                    "internalType": "address",
                    "name": "to",
                    "type": "address"
                },
                {
                    "internalType": "uint256",
                    "name": "tokenId",
                    "type": "uint256"
                },
                {
                    "internalType": "string",
                    "name": "uri",
                    "type": "string"
                }
            ],
            "name": "safeMint",
            "outputs": [],
            "stateMutability": "nonpayable",
            "type": "function"
        },
        {
            "inputs": [
                {
                    "internalType": "address",
                    "name": "from",
                    "type": "address"
                },
                {
                    "internalType": "address",
                    "name": "to",
                    "type": "address"
                },
                {
                    "internalType": "uint256",
                    "name": "tokenId",
                    "type": "uint256"
                }
            ],
            "name": "safeTransferFrom",
            "outputs": [],
            "stateMutability": "nonpayable",
            "type": "function"
        },
        {
            "inputs": [
                {
                    "internalType": "address",
                    "name": "from",
                    "type": "address"
                },
                {
                    "internalType": "address",
                    "name": "to",
                    "type": "address"
                },
                {
                    "internalType": "uint256",
                    "name": "tokenId",
                    "type": "uint256"
                },
                {
                    "internalType": "bytes",
                    "name": "data",
                    "type": "bytes"
                }
            ],
            "name": "safeTransferFrom",
            "outputs": [],
            "stateMutability": "nonpayable",
            "type": "function"
        },
        {
            "inputs": [
                {
                    "internalType": "address",
                    "name": "operator",
                    "type": "address"
                },
                {
                    "internalType": "bool",
                    "name": "approved",
                    "type": "bool"
                }
            ],
            "name": "setApprovalForAll",
            "outputs": [],
            "stateMutability": "nonpayable",
            "type": "function"
        },
        {
            "inputs": [
                {
                    "internalType": "bytes4",
                    "name": "interfaceId",
                    "type": "bytes4"
                }
            ],
            "name": "supportsInterface",
            "outputs": [
                {
                    "internalType": "bool",
                    "name": "",
                    "type": "bool"
                }
            ],
            "stateMutability": "view",
            "type": "function"
        },
        {
            "inputs": [],
            "name": "symbol",
            "outputs": [
                {
                    "internalType": "string",
                    "name": "",
                    "type": "string"
                }
            ],
            "stateMutability": "view",
            "type": "function"
        },
        {
            "inputs": [
                {
                    "internalType": "uint256",
                    "name": "index",
                    "type": "uint256"
                }
            ],
            "name": "tokenByIndex",
            "outputs": [
                {
                    "internalType": "uint256",
                    "name": "",
                    "type": "uint256"
                }
            ],
            "stateMutability": "view",
            "type": "function"
        },
        {
            "inputs": [
                {
                    "internalType": "address",
                    "name": "owner",
                    "type": "address"
                },
                {
                    "internalType": "uint256",
                    "name": "index",
                    "type": "uint256"
                }
            ],
            "name": "tokenOfOwnerByIndex",
            "outputs": [
                {
                    "internalType": "uint256",
                    "name": "",
                    "type": "uint256"
                }
            ],
            "stateMutability": "view",
            "type": "function"
        },
        {
            "inputs": [
                {
                    "internalType": "uint256",
                    "name": "tokenId",
                    "type": "uint256"
                }
            ],
            "name": "tokenURI",
            "outputs": [
                {
                    "internalType": "string",
                    "name": "",
                    "type": "string"
                }
            ],
            "stateMutability": "view",
            "type": "function"
        },
        {
            "inputs": [],
            "name": "totalSupply",
            "outputs": [
                {
                    "internalType": "uint256",
                    "name": "",
                    "type": "uint256"
                }
            ],
            "stateMutability": "view",
            "type": "function"
        },
        {
            "inputs": [
                {
                    "internalType": "address",
                    "name": "from",
                    "type": "address"
                },
                {
                    "internalType": "address",
                    "name": "to",
                    "type": "address"
                },
                {
                    "internalType": "uint256",
                    "name": "tokenId",
                    "type": "uint256"
                }
            ],
            "name": "transferFrom",
            "outputs": [],
            "stateMutability": "nonpayable",
            "type": "function"
        },
        {
            "inputs": [
                {
                    "internalType": "address",
                    "name": "newOwner",
                    "type": "address"
                }
            ],
            "name": "transferOwnership",
            "outputs": [],
            "stateMutability": "nonpayable",
            "type": "function"
        }
    ],
    "bytecode": "0x60806040523480156200001157600080fd5b506040518060400160405280600a81526020017f52657761726443617264000000000000000000000000000000000000000000008152506040518060400160405280600381526020017f5257440000000000000000000000000000000000000000000000000000000000815250816000908051906020019062000096929190620001a6565b508060019080519060200190620000af929190620001a6565b505050620000d2620000c6620000d860201b60201c565b620000e060201b60201c565b620002bb565b600033905090565b6000600b60009054906101000a900473ffffffffffffffffffffffffffffffffffffffff16905081600b60006101000a81548173ffffffffffffffffffffffffffffffffffffffff021916908373ffffffffffffffffffffffffffffffffffffffff1602179055508173ffffffffffffffffffffffffffffffffffffffff168173ffffffffffffffffffffffffffffffffffffffff167f8be0079c531659141344cd1fd0a4f28419497f9722a3daafe3b4186f6b6457e060405160405180910390a35050565b828054620001b49062000256565b90600052602060002090601f016020900481019282620001d8576000855562000224565b82601f10620001f357805160ff191683800117855562000224565b8280016001018555821562000224579182015b828111156200022357825182559160200191906001019062000206565b5b50905062000233919062000237565b5090565b5b808211156200025257600081600090555060010162000238565b5090565b600060028204905060018216806200026f57607f821691505b602082108114156200028657620002856200028c565b5b50919050565b7f4e487b7100000000000000000000000000000000000000000000000000000000600052602260045260246000fd5b61442380620002cb6000396000f3fe608060405234801561001057600080fd5b506004361061014d5760003560e01c806370a08231116100c3578063b88d4fde1161007c578063b88d4fde146103c4578063bf7107e1146103e0578063c87b56dd146103fc578063cd279c7c1461042c578063e985e9c514610448578063f2fde38b146104785761014d565b806370a0823114610302578063715018a6146103325780638da5cb5b1461033c578063921881a81461035a57806395d89b411461038a578063a22cb465146103a85761014d565b806318160ddd1161011557806318160ddd1461021c57806323b872dd1461023a5780632f745c591461025657806342842e0e146102865780634f6ccce7146102a25780636352211e146102d25761014d565b806301ffc9a71461015257806304bfdba81461018257806306fdde03146101b2578063081812fc146101d0578063095ea7b314610200575b600080fd5b61016c600480360381019061016791906128c3565b610494565b6040516101799190613164565b60405180910390f35b61019c60048036038101906101979190612981565b6104a6565b6040516101a9919061317f565b60405180910390f35b6101ba6104ea565b6040516101c7919061317f565b60405180910390f35b6101ea60048036038101906101e59190612a93565b61057c565b6040516101f791906130fd565b60405180910390f35b61021a60048036038101906102159190612820565b6105c2565b005b6102246106da565b60405161023191906133a1565b60405180910390f35b610254600480360381019061024f919061271a565b6106e7565b005b610270600480360381019061026b9190612820565b610747565b60405161027d91906133a1565b60405180910390f35b6102a0600480360381019061029b919061271a565b6107ec565b005b6102bc60048036038101906102b79190612a93565b61080c565b6040516102c991906133a1565b60405180910390f35b6102ec60048036038101906102e79190612a93565b6108a3565b6040516102f991906130fd565b60405180910390f35b61031c600480360381019061031791906126b5565b610955565b60405161032991906133a1565b60405180910390f35b61033a610a0d565b005b610344610a21565b60405161035191906130fd565b60405180910390f35b610374600480360381019061036f9190612915565b610a4b565b604051610381919061317f565b60405180910390f35b610392610a8d565b60405161039f919061317f565b60405180910390f35b6103c260048036038101906103bd91906127e4565b610b1f565b005b6103de60048036038101906103d99190612769565b610b35565b005b6103fa60048036038101906103f59190612a00565b610b97565b005b61041660048036038101906104119190612a93565b610c33565b604051610423919061317f565b60405180910390f35b6104466004803603810190610441919061285c565b610c45565b005b610462600480360381019061045d91906126de565b610c66565b60405161046f9190613164565b60405180910390f35b610492600480360381019061048d91906126b5565b610cfa565b005b600061049f82610d7e565b9050919050565b6060600060019050600085856104bb86610df8565b6040516020016104cd93929190612fec565b604051602081830303815290604052905080925050509392505050565b6060600080546104f990613651565b80601f016020809104026020016040519081016040528092919081815260200182805461052590613651565b80156105725780601f1061054757610100808354040283529160200191610572565b820191906000526020600020905b81548152906001019060200180831161055557829003601f168201915b5050505050905090565b600061058782610fa5565b6004600083815260200190815260200160002060009054906101000a900473ffffffffffffffffffffffffffffffffffffffff169050919050565b60006105cd826108a3565b90508073ffffffffffffffffffffffffffffffffffffffff168373ffffffffffffffffffffffffffffffffffffffff16141561063e576040517f08c379a000000000000000000000000000000000000000000000000000000000815260040161063590613341565b60405180910390fd5b8073ffffffffffffffffffffffffffffffffffffffff1661065d610ff0565b73ffffffffffffffffffffffffffffffffffffffff16148061068c575061068b81610686610ff0565b610c66565b5b6106cb576040517f08c379a00000000000000000000000000000000000000000000000000000000081526004016106c2906132c1565b60405180910390fd5b6106d58383610ff8565b505050565b6000600880549050905090565b6106f86106f2610ff0565b826110b1565b610737576040517f08c379a000000000000000000000000000000000000000000000000000000000815260040161072e90613381565b60405180910390fd5b610742838383611146565b505050565b600061075283610955565b8210610793576040517f08c379a000000000000000000000000000000000000000000000000000000000815260040161078a906131a1565b60405180910390fd5b600660008473ffffffffffffffffffffffffffffffffffffffff1673ffffffffffffffffffffffffffffffffffffffff168152602001908152602001600020600083815260200190815260200160002054905092915050565b61080783838360405180602001604052806000815250610b35565b505050565b60006108166106da565b8210610857576040517f08c379a000000000000000000000000000000000000000000000000000000000815260040161084e90613361565b60405180910390fd5b60088281548110610891577f4e487b7100000000000000000000000000000000000000000000000000000000600052603260045260246000fd5b90600052602060002001549050919050565b6000806002600084815260200190815260200160002060009054906101000a900473ffffffffffffffffffffffffffffffffffffffff169050600073ffffffffffffffffffffffffffffffffffffffff168173ffffffffffffffffffffffffffffffffffffffff16141561094c576040517f08c379a000000000000000000000000000000000000000000000000000000000815260040161094390613321565b60405180910390fd5b80915050919050565b60008073ffffffffffffffffffffffffffffffffffffffff168273ffffffffffffffffffffffffffffffffffffffff1614156109c6576040517f08c379a00000000000000000000000000000000000000000000000000000000081526004016109bd90613281565b60405180910390fd5b600360008373ffffffffffffffffffffffffffffffffffffffff1673ffffffffffffffffffffffffffffffffffffffff168152602001908152602001600020549050919050565b610a156113ad565b610a1f600061142b565b565b6000600b60009054906101000a900473ffffffffffffffffffffffffffffffffffffffff16905090565b60606000610a8183610a5c866114f1565b604051602001610a6d929190613096565b6040516020818303038152906040526114f1565b90508091505092915050565b606060018054610a9c90613651565b80601f0160208091040260200160405190810160405280929190818152602001828054610ac890613651565b8015610b155780601f10610aea57610100808354040283529160200191610b15565b820191906000526020600020905b815481529060010190602001808311610af857829003601f168201915b5050505050905090565b610b31610b2a610ff0565b838361167b565b5050565b610b46610b40610ff0565b836110b1565b610b85576040517f08c379a0000000000000000000000000000000000000000000000000000000008152600401610b7c90613381565b60405180910390fd5b610b91848484846117e8565b50505050565b6000610ba3600c611844565b90506000610bb28686866104a6565b9050600085604051602001610bc79190612fca565b60405160208183030381529060405290506000610be48383610a4b565b9050600081604051602001610bf991906130db565b6040516020818303038152906040529050610c148686611852565b610c1e8582611870565b610c28600c6118e4565b505050505050505050565b6060610c3e826118fa565b9050919050565b610c4d6113ad565b610c578383611852565b610c618282611870565b505050565b6000600560008473ffffffffffffffffffffffffffffffffffffffff1673ffffffffffffffffffffffffffffffffffffffff16815260200190815260200160002060008373ffffffffffffffffffffffffffffffffffffffff1673ffffffffffffffffffffffffffffffffffffffff16815260200190815260200160002060009054906101000a900460ff16905092915050565b610d026113ad565b600073ffffffffffffffffffffffffffffffffffffffff168173ffffffffffffffffffffffffffffffffffffffff161415610d72576040517f08c379a0000000000000000000000000000000000000000000000000000000008152600401610d69906131e1565b60405180910390fd5b610d7b8161142b565b50565b60007f780e9d63000000000000000000000000000000000000000000000000000000007bffffffffffffffffffffffffffffffffffffffffffffffffffffffff1916827bffffffffffffffffffffffffffffffffffffffffffffffffffffffff19161480610df15750610df082611a0d565b5b9050919050565b60606000821415610e40576040518060400160405280600181526020017f30000000000000000000000000000000000000000000000000000000000000008152509050610fa0565b600082905060005b60008214610e72578080610e5b906136b4565b915050600a82610e6b91906134dc565b9150610e48565b60008167ffffffffffffffff811115610eb4577f4e487b7100000000000000000000000000000000000000000000000000000000600052604160045260246000fd5b6040519080825280601f01601f191660200182016040528015610ee65781602001600182028036833780820191505090505b5090505b60008514610f9957600182610eff9190613567565b9150600a85610f0e91906136fd565b6030610f1a9190613486565b60f81b818381518110610f56577f4e487b7100000000000000000000000000000000000000000000000000000000600052603260045260246000fd5b60200101907effffffffffffffffffffffffffffffffffffffffffffffffffffffffffffff1916908160001a905350600a85610f9291906134dc565b9450610eea565b8093505050505b919050565b610fae81611aef565b610fed576040517f08c379a0000000000000000000000000000000000000000000000000000000008152600401610fe490613321565b60405180910390fd5b50565b600033905090565b816004600083815260200190815260200160002060006101000a81548173ffffffffffffffffffffffffffffffffffffffff021916908373ffffffffffffffffffffffffffffffffffffffff160217905550808273ffffffffffffffffffffffffffffffffffffffff1661106b836108a3565b73ffffffffffffffffffffffffffffffffffffffff167f8c5be1e5ebec7d5bd14f71427d1e84f3dd0314c0f7b2291e5b200ac8c7c3b92560405160405180910390a45050565b6000806110bd836108a3565b90508073ffffffffffffffffffffffffffffffffffffffff168473ffffffffffffffffffffffffffffffffffffffff1614806110ff57506110fe8185610c66565b5b8061113d57508373ffffffffffffffffffffffffffffffffffffffff166111258461057c565b73ffffffffffffffffffffffffffffffffffffffff16145b91505092915050565b8273ffffffffffffffffffffffffffffffffffffffff16611166826108a3565b73ffffffffffffffffffffffffffffffffffffffff16146111bc576040517f08c379a00000000000000000000000000000000000000000000000000000000081526004016111b390613201565b60405180910390fd5b600073ffffffffffffffffffffffffffffffffffffffff168273ffffffffffffffffffffffffffffffffffffffff16141561122c576040517f08c379a000000000000000000000000000000000000000000000000000000000815260040161122390613241565b60405180910390fd5b611237838383611b5b565b611242600082610ff8565b6001600360008573ffffffffffffffffffffffffffffffffffffffff1673ffffffffffffffffffffffffffffffffffffffff16815260200190815260200160002060008282546112929190613567565b925050819055506001600360008473ffffffffffffffffffffffffffffffffffffffff1673ffffffffffffffffffffffffffffffffffffffff16815260200190815260200160002060008282546112e99190613486565b92505081905550816002600083815260200190815260200160002060006101000a81548173ffffffffffffffffffffffffffffffffffffffff021916908373ffffffffffffffffffffffffffffffffffffffff160217905550808273ffffffffffffffffffffffffffffffffffffffff168473ffffffffffffffffffffffffffffffffffffffff167fddf252ad1be2c89b69c2b068fc378daa952ba7f163c4a11628f55a4df523b3ef60405160405180910390a46113a8838383611b6b565b505050565b6113b5610ff0565b73ffffffffffffffffffffffffffffffffffffffff166113d3610a21565b73ffffffffffffffffffffffffffffffffffffffff1614611429576040517f08c379a000000000000000000000000000000000000000000000000000000000815260040161142090613301565b60405180910390fd5b565b6000600b60009054906101000a900473ffffffffffffffffffffffffffffffffffffffff16905081600b60006101000a81548173ffffffffffffffffffffffffffffffffffffffff021916908373ffffffffffffffffffffffffffffffffffffffff1602179055508173ffffffffffffffffffffffffffffffffffffffff168173ffffffffffffffffffffffffffffffffffffffff167f8be0079c531659141344cd1fd0a4f28419497f9722a3daafe3b4186f6b6457e060405160405180910390a35050565b606060008251141561151457604051806020016040528060008152509050611676565b60006040518060600160405280604081526020016143ae60409139905060006003600285516115439190613486565b61154d91906134dc565b6004611559919061350d565b67ffffffffffffffff811115611598577f4e487b7100000000000000000000000000000000000000000000000000000000600052604160045260246000fd5b6040519080825280601f01601f1916602001820160405280156115ca5781602001600182028036833780820191505090505b509050600182016020820185865187015b80821015611636576003820191508151603f8160121c168501518453600184019350603f81600c1c168501518453600184019350603f8160061c168501518453600184019350603f81168501518453600184019350506115db565b505060038651066001811461165257600281146116655761166d565b603d6001830353603d600283035361166d565b603d60018303535b50505080925050505b919050565b8173ffffffffffffffffffffffffffffffffffffffff168373ffffffffffffffffffffffffffffffffffffffff1614156116ea576040517f08c379a00000000000000000000000000000000000000000000000000000000081526004016116e190613261565b60405180910390fd5b80600560008573ffffffffffffffffffffffffffffffffffffffff1673ffffffffffffffffffffffffffffffffffffffff16815260200190815260200160002060008473ffffffffffffffffffffffffffffffffffffffff1673ffffffffffffffffffffffffffffffffffffffff16815260200190815260200160002060006101000a81548160ff0219169083151502179055508173ffffffffffffffffffffffffffffffffffffffff168373ffffffffffffffffffffffffffffffffffffffff167f17307eab39ab6107e8899845ad3d59bd9653f200f220920489ca2b5937696c31836040516117db9190613164565b60405180910390a3505050565b6117f3848484611146565b6117ff84848484611b70565b61183e576040517f08c379a0000000000000000000000000000000000000000000000000000000008152600401611835906131c1565b60405180910390fd5b50505050565b600081600001549050919050565b61186c828260405180602001604052806000815250611d07565b5050565b61187982611aef565b6118b8576040517f08c379a00000000000000000000000000000000000000000000000000000000081526004016118af906132a1565b60405180910390fd5b80600a600084815260200190815260200160002090805190602001906118df9291906124d9565b505050565b6001816000016000828254019250508190555050565b606061190582610fa5565b6000600a6000848152602001908152602001600020805461192590613651565b80601f016020809104026020016040519081016040528092919081815260200182805461195190613651565b801561199e5780601f106119735761010080835404028352916020019161199e565b820191906000526020600020905b81548152906001019060200180831161198157829003601f168201915b5050505050905060006119af611d62565b90506000815114156119c5578192505050611a08565b6000825111156119fa5780826040516020016119e2929190612fa6565b60405160208183030381529060405292505050611a08565b611a0384611d79565b925050505b919050565b60007f80ac58cd000000000000000000000000000000000000000000000000000000007bffffffffffffffffffffffffffffffffffffffffffffffffffffffff1916827bffffffffffffffffffffffffffffffffffffffffffffffffffffffff19161480611ad857507f5b5e139f000000000000000000000000000000000000000000000000000000007bffffffffffffffffffffffffffffffffffffffffffffffffffffffff1916827bffffffffffffffffffffffffffffffffffffffffffffffffffffffff1916145b80611ae85750611ae782611de1565b5b9050919050565b60008073ffffffffffffffffffffffffffffffffffffffff166002600084815260200190815260200160002060009054906101000a900473ffffffffffffffffffffffffffffffffffffffff1673ffffffffffffffffffffffffffffffffffffffff1614159050919050565b611b66838383611e4b565b505050565b505050565b6000611b918473ffffffffffffffffffffffffffffffffffffffff16611f5f565b15611cfa578373ffffffffffffffffffffffffffffffffffffffff1663150b7a02611bba610ff0565b8786866040518563ffffffff1660e01b8152600401611bdc9493929190613118565b602060405180830381600087803b158015611bf657600080fd5b505af1925050508015611c2757506040513d601f19601f82011682018060405250810190611c2491906128ec565b60015b611caa573d8060008114611c57576040519150601f19603f3d011682016040523d82523d6000602084013e611c5c565b606091505b50600081511415611ca2576040517f08c379a0000000000000000000000000000000000000000000000000000000008152600401611c99906131c1565b60405180910390fd5b805181602001fd5b63150b7a0260e01b7bffffffffffffffffffffffffffffffffffffffffffffffffffffffff1916817bffffffffffffffffffffffffffffffffffffffffffffffffffffffff191614915050611cff565b600190505b949350505050565b611d118383611f82565b611d1e6000848484611b70565b611d5d576040517f08c379a0000000000000000000000000000000000000000000000000000000008152600401611d54906131c1565b60405180910390fd5b505050565b606060405180602001604052806000815250905090565b6060611d8482610fa5565b6000611d8e611d62565b90506000815111611dae5760405180602001604052806000815250611dd9565b80611db884610df8565b604051602001611dc9929190612fa6565b6040516020818303038152906040525b915050919050565b60007f01ffc9a7000000000000000000000000000000000000000000000000000000007bffffffffffffffffffffffffffffffffffffffffffffffffffffffff1916827bffffffffffffffffffffffffffffffffffffffffffffffffffffffff1916149050919050565b611e5683838361215c565b600073ffffffffffffffffffffffffffffffffffffffff168373ffffffffffffffffffffffffffffffffffffffff161415611e9957611e9481612161565b611ed8565b8173ffffffffffffffffffffffffffffffffffffffff168373ffffffffffffffffffffffffffffffffffffffff1614611ed757611ed683826121aa565b5b5b600073ffffffffffffffffffffffffffffffffffffffff168273ffffffffffffffffffffffffffffffffffffffff161415611f1b57611f1681612317565b611f5a565b8273ffffffffffffffffffffffffffffffffffffffff168273ffffffffffffffffffffffffffffffffffffffff1614611f5957611f58828261245a565b5b5b505050565b6000808273ffffffffffffffffffffffffffffffffffffffff163b119050919050565b600073ffffffffffffffffffffffffffffffffffffffff168273ffffffffffffffffffffffffffffffffffffffff161415611ff2576040517f08c379a0000000000000000000000000000000000000000000000000000000008152600401611fe9906132e1565b60405180910390fd5b611ffb81611aef565b1561203b576040517f08c379a000000000000000000000000000000000000000000000000000000000815260040161203290613221565b60405180910390fd5b61204760008383611b5b565b6001600360008473ffffffffffffffffffffffffffffffffffffffff1673ffffffffffffffffffffffffffffffffffffffff16815260200190815260200160002060008282546120979190613486565b92505081905550816002600083815260200190815260200160002060006101000a81548173ffffffffffffffffffffffffffffffffffffffff021916908373ffffffffffffffffffffffffffffffffffffffff160217905550808273ffffffffffffffffffffffffffffffffffffffff16600073ffffffffffffffffffffffffffffffffffffffff167fddf252ad1be2c89b69c2b068fc378daa952ba7f163c4a11628f55a4df523b3ef60405160405180910390a461215860008383611b6b565b5050565b505050565b6008805490506009600083815260200190815260200160002081905550600881908060018154018082558091505060019003906000526020600020016000909190919091505550565b600060016121b784610955565b6121c19190613567565b90506000600760008481526020019081526020016000205490508181146122a6576000600660008673ffffffffffffffffffffffffffffffffffffffff1673ffffffffffffffffffffffffffffffffffffffff168152602001908152602001600020600084815260200190815260200160002054905080600660008773ffffffffffffffffffffffffffffffffffffffff1673ffffffffffffffffffffffffffffffffffffffff168152602001908152602001600020600084815260200190815260200160002081905550816007600083815260200190815260200160002081905550505b6007600084815260200190815260200160002060009055600660008573ffffffffffffffffffffffffffffffffffffffff1673ffffffffffffffffffffffffffffffffffffffff16815260200190815260200160002060008381526020019081526020016000206000905550505050565b6000600160088054905061232b9190613567565b9050600060096000848152602001908152602001600020549050600060088381548110612381577f4e487b7100000000000000000000000000000000000000000000000000000000600052603260045260246000fd5b9060005260206000200154905080600883815481106123c9577f4e487b7100000000000000000000000000000000000000000000000000000000600052603260045260246000fd5b90600052602060002001819055508160096000838152602001908152602001600020819055506009600085815260200190815260200160002060009055600880548061243e577f4e487b7100000000000000000000000000000000000000000000000000000000600052603160045260246000fd5b6001900381819060005260206000200160009055905550505050565b600061246583610955565b905081600660008573ffffffffffffffffffffffffffffffffffffffff1673ffffffffffffffffffffffffffffffffffffffff168152602001908152602001600020600083815260200190815260200160002081905550806007600084815260200190815260200160002081905550505050565b8280546124e590613651565b90600052602060002090601f016020900481019282612507576000855561254e565b82601f1061252057805160ff191683800117855561254e565b8280016001018555821561254e579182015b8281111561254d578251825591602001919060010190612532565b5b50905061255b919061255f565b5090565b5b80821115612578576000816000905550600101612560565b5090565b600061258f61258a846133e1565b6133bc565b9050828152602081018484840111156125a757600080fd5b6125b284828561360f565b509392505050565b60006125cd6125c884613412565b6133bc565b9050828152602081018484840111156125e557600080fd5b6125f084828561360f565b509392505050565b60008135905061260781614351565b92915050565b60008135905061261c81614368565b92915050565b6000813590506126318161437f565b92915050565b6000815190506126468161437f565b92915050565b600082601f83011261265d57600080fd5b813561266d84826020860161257c565b91505092915050565b600082601f83011261268757600080fd5b81356126978482602086016125ba565b91505092915050565b6000813590506126af81614396565b92915050565b6000602082840312156126c757600080fd5b60006126d5848285016125f8565b91505092915050565b600080604083850312156126f157600080fd5b60006126ff858286016125f8565b9250506020612710858286016125f8565b9150509250929050565b60008060006060848603121561272f57600080fd5b600061273d868287016125f8565b935050602061274e868287016125f8565b925050604061275f868287016126a0565b9150509250925092565b6000806000806080858703121561277f57600080fd5b600061278d878288016125f8565b945050602061279e878288016125f8565b93505060406127af878288016126a0565b925050606085013567ffffffffffffffff8111156127cc57600080fd5b6127d88782880161264c565b91505092959194509250565b600080604083850312156127f757600080fd5b6000612805858286016125f8565b92505060206128168582860161260d565b9150509250929050565b6000806040838503121561283357600080fd5b6000612841858286016125f8565b9250506020612852858286016126a0565b9150509250929050565b60008060006060848603121561287157600080fd5b600061287f868287016125f8565b9350506020612890868287016126a0565b925050604084013567ffffffffffffffff8111156128ad57600080fd5b6128b986828701612676565b9150509250925092565b6000602082840312156128d557600080fd5b60006128e384828501612622565b91505092915050565b6000602082840312156128fe57600080fd5b600061290c84828501612637565b91505092915050565b6000806040838503121561292857600080fd5b600083013567ffffffffffffffff81111561294257600080fd5b61294e85828601612676565b925050602083013567ffffffffffffffff81111561296b57600080fd5b61297785828601612676565b9150509250929050565b60008060006060848603121561299657600080fd5b600084013567ffffffffffffffff8111156129b057600080fd5b6129bc86828701612676565b935050602084013567ffffffffffffffff8111156129d957600080fd5b6129e586828701612676565b92505060406129f6868287016126a0565b9150509250925092565b60008060008060808587031215612a1657600080fd5b600085013567ffffffffffffffff811115612a3057600080fd5b612a3c87828801612676565b945050602085013567ffffffffffffffff811115612a5957600080fd5b612a6587828801612676565b9350506040612a76878288016126a0565b9250506060612a87878288016125f8565b91505092959194509250565b600060208284031215612aa557600080fd5b6000612ab3848285016126a0565b91505092915050565b612ac58161359b565b82525050565b612ad4816135ad565b82525050565b6000612ae582613443565b612aef8185613459565b9350612aff81856020860161361e565b612b08816137ea565b840191505092915050565b6000612b1e8261344e565b612b28818561346a565b9350612b3881856020860161361e565b612b41816137ea565b840191505092915050565b6000612b578261344e565b612b61818561347b565b9350612b7181856020860161361e565b80840191505092915050565b6000612b8a60ac8361347b565b9150612b95826137fb565b60ac82019050919050565b6000612bad602b8361346a565b9150612bb8826138e2565b604082019050919050565b6000612bd060328361346a565b9150612bdb82613931565b604082019050919050565b6000612bf360948361347b565b9150612bfe82613980565b609482019050919050565b6000612c1660268361346a565b9150612c2182613a41565b604082019050919050565b6000612c3960258361346a565b9150612c4482613a90565b604082019050919050565b6000612c5c601c8361346a565b9150612c6782613adf565b602082019050919050565b6000612c7f605f8361347b565b9150612c8a82613b08565b605f82019050919050565b6000612ca260248361346a565b9150612cad82613b7d565b604082019050919050565b6000612cc560198361346a565b9150612cd082613bcc565b602082019050919050565b6000612ce860bd8361347b565b9150612cf382613bf5565b60bd82019050919050565b6000612d0b60b38361347b565b9150612d1682613cdc565b60b382019050919050565b6000612d2e60298361346a565b9150612d3982613dc3565b604082019050919050565b6000612d51606a8361347b565b9150612d5c82613e12565b606a82019050919050565b6000612d74602e8361346a565b9150612d7f82613ead565b604082019050919050565b6000612d9760028361347b565b9150612da282613efc565b600282019050919050565b6000612dba60078361347b565b9150612dc582613f25565b600782019050919050565b6000612ddd603e8361346a565b9150612de882613f4e565b604082019050919050565b6000612e0060208361346a565b9150612e0b82613f9d565b602082019050919050565b6000612e23600f8361347b565b9150612e2e82613fc6565b600f82019050919050565b6000612e4660208361346a565b9150612e5182613fef565b602082019050919050565b6000612e69600a8361347b565b9150612e7482614018565b600a82019050919050565b6000612e8c60188361346a565b9150612e9782614041565b602082019050919050565b6000612eaf60218361346a565b9150612eba8261406a565b604082019050919050565b6000612ed2601d8361347b565b9150612edd826140b9565b601d82019050919050565b6000612ef5604a8361347b565b9150612f00826140e2565b604a82019050919050565b6000612f1860e18361347b565b9150612f2382614157565b60e182019050919050565b6000612f3b602c8361346a565b9150612f468261428a565b604082019050919050565b6000612f5e602e8361346a565b9150612f69826142d9565b604082019050919050565b6000612f8160068361347b565b9150612f8c82614328565b600682019050919050565b612fa081613605565b82525050565b6000612fb28285612b4c565b9150612fbe8284612b4c565b91508190509392505050565b6000612fd68284612b4c565b9150612fe182612e16565b915081905092915050565b6000612ff782612c72565b915061300282612be6565b915061300d82612d44565b915061301882612b7d565b91506130248286612b4c565b915061302f82612dad565b915061303a82612cdb565b91506130468285612b4c565b915061305182612dad565b915061305c82612cfe565b91506130688284612b4c565b915061307382612dad565b915061307e82612f0b565b915061308982612f74565b9150819050949350505050565b60006130a182612e5c565b91506130ad8285612b4c565b91506130b882612ee8565b91506130c48284612b4c565b91506130cf82612d8a565b91508190509392505050565b60006130e682612ec5565b91506130f28284612b4c565b915081905092915050565b60006020820190506131126000830184612abc565b92915050565b600060808201905061312d6000830187612abc565b61313a6020830186612abc565b6131476040830185612f97565b81810360608301526131598184612ada565b905095945050505050565b60006020820190506131796000830184612acb565b92915050565b600060208201905081810360008301526131998184612b13565b905092915050565b600060208201905081810360008301526131ba81612ba0565b9050919050565b600060208201905081810360008301526131da81612bc3565b9050919050565b600060208201905081810360008301526131fa81612c09565b9050919050565b6000602082019050818103600083015261321a81612c2c565b9050919050565b6000602082019050818103600083015261323a81612c4f565b9050919050565b6000602082019050818103600083015261325a81612c95565b9050919050565b6000602082019050818103600083015261327a81612cb8565b9050919050565b6000602082019050818103600083015261329a81612d21565b9050919050565b600060208201905081810360008301526132ba81612d67565b9050919050565b600060208201905081810360008301526132da81612dd0565b9050919050565b600060208201905081810360008301526132fa81612df3565b9050919050565b6000602082019050818103600083015261331a81612e39565b9050919050565b6000602082019050818103600083015261333a81612e7f565b9050919050565b6000602082019050818103600083015261335a81612ea2565b9050919050565b6000602082019050818103600083015261337a81612f2e565b9050919050565b6000602082019050818103600083015261339a81612f51565b9050919050565b60006020820190506133b66000830184612f97565b92915050565b60006133c66133d7565b90506133d28282613683565b919050565b6000604051905090565b600067ffffffffffffffff8211156133fc576133fb6137bb565b5b613405826137ea565b9050602081019050919050565b600067ffffffffffffffff82111561342d5761342c6137bb565b5b613436826137ea565b9050602081019050919050565b600081519050919050565b600081519050919050565b600082825260208201905092915050565b600082825260208201905092915050565b600081905092915050565b600061349182613605565b915061349c83613605565b9250827fffffffffffffffffffffffffffffffffffffffffffffffffffffffffffffffff038211156134d1576134d061372e565b5b828201905092915050565b60006134e782613605565b91506134f283613605565b9250826135025761350161375d565b5b828204905092915050565b600061351882613605565b915061352383613605565b9250817fffffffffffffffffffffffffffffffffffffffffffffffffffffffffffffffff048311821515161561355c5761355b61372e565b5b828202905092915050565b600061357282613605565b915061357d83613605565b9250828210156135905761358f61372e565b5b828203905092915050565b60006135a6826135e5565b9050919050565b60008115159050919050565b60007fffffffff0000000000000000000000000000000000000000000000000000000082169050919050565b600073ffffffffffffffffffffffffffffffffffffffff82169050919050565b6000819050919050565b82818337600083830152505050565b60005b8381101561363c578082015181840152602081019050613621565b8381111561364b576000848401525b50505050565b6000600282049050600182168061366957607f821691505b6020821081141561367d5761367c61378c565b5b50919050565b61368c826137ea565b810181811067ffffffffffffffff821117156136ab576136aa6137bb565b5b80604052505050565b60006136bf82613605565b91507fffffffffffffffffffffffffffffffffffffffffffffffffffffffffffffffff8214156136f2576136f161372e565b5b600182019050919050565b600061370882613605565b915061371383613605565b9250826137235761372261375d565b5b828206905092915050565b7f4e487b7100000000000000000000000000000000000000000000000000000000600052601160045260246000fd5b7f4e487b7100000000000000000000000000000000000000000000000000000000600052601260045260246000fd5b7f4e487b7100000000000000000000000000000000000000000000000000000000600052602260045260246000fd5b7f4e487b7100000000000000000000000000000000000000000000000000000000600052604160045260246000fd5b6000601f19601f8301169050919050565b7f3c7465787420786d6c3a73706163653d2270726573657276652220746578742d60008201527f616e63686f723d2273746172742220666f6e742d66616d696c793d224e6f746f60208201527f2053616e73204a502220666f6e742d73697a653d223234222069643d2273766760408201527f5f312220793d2237312e31393231382220783d2234352e30363432362220737460608201527f726f6b652d77696474683d223022207374726f6b653d2223303030222066696c60808201527f6c3d2223303030303030223e000000000000000000000000000000000000000060a082015250565b7f455243373231456e756d657261626c653a206f776e657220696e646578206f7560008201527f74206f6620626f756e6473000000000000000000000000000000000000000000602082015250565b7f4552433732313a207472616e7366657220746f206e6f6e20455243373231526560008201527f63656976657220696d706c656d656e7465720000000000000000000000000000602082015250565b7f3c70617468207472616e73666f726d3d22726f74617465283930203234302e3860008201527f32382034352e3937353229222069643d227376675f382220643d226d3234312e60208201527f34393135322c2d3139342e32353030356c2d312e33323732312c3438302e343560408201527f30343422206f7061636974793d22756e646566696e656422207374726f6b653d60608201527f2223303030222066696c6c3d226e6f6e65222f3e000000000000000000000000608082015250565b7f4f776e61626c653a206e6577206f776e657220697320746865207a65726f206160008201527f6464726573730000000000000000000000000000000000000000000000000000602082015250565b7f4552433732313a207472616e736665722066726f6d20696e636f72726563742060008201527f6f776e6572000000000000000000000000000000000000000000000000000000602082015250565b7f4552433732313a20746f6b656e20616c7265616479206d696e74656400000000600082015250565b7f3c7376672077696474683d223437392e3939393939393939393939393934222060008201527f6865696768743d223437392e39393939393939393939393939342220786d6c6e60208201527f733d22687474703a2f2f7777772e77332e6f72672f323030302f737667223e00604082015250565b7f4552433732313a207472616e7366657220746f20746865207a65726f2061646460008201527f7265737300000000000000000000000000000000000000000000000000000000602082015250565b7f4552433732313a20617070726f766520746f2063616c6c657200000000000000600082015250565b7f3c7465787420786d6c3a73706163653d2270726573657276652220746578742d60008201527f616e63686f723d2273746172742220666f6e742d66616d696c793d224e6f746f60208201527f2053616e73204a502220666f6e742d73697a653d223234222069643d2273766760408201527f5f332220793d223133372e313838382220783d2234352e30363432362220737460608201527f726f6b652d77696474683d223022207374726f6b653d2223303030222066696c60808201527f6c3d2223303030303030223e4361726420486f6c646572204e616d653a00000060a082015250565b7f3c7465787420786d6c3a73706163653d2270726573657276652220746578742d60008201527f616e63686f723d2273746172742220666f6e742d66616d696c793d224e6f746f60208201527f2053616e73204a502220666f6e742d73697a653d223234222069643d2273766760408201527f5f362220793d223137302e30323238362220783d2234352e303036363122207360608201527f74726f6b652d77696474683d223022207374726f6b653d22233030302220666960808201527f6c6c3d2223303030303030223e4c6576656c3a0000000000000000000000000060a082015250565b7f4552433732313a2061646472657373207a65726f206973206e6f74206120766160008201527f6c6964206f776e65720000000000000000000000000000000000000000000000602082015250565b7f3c706174682069643d227376675f392220643d226d34312e30383236332c2d3160008201527f2e38303434336c2d312e33323732312c3438302e343530343422206f7061636960208201527f74793d22756e646566696e656422207374726f6b653d2223303030222066696c60408201527f6c3d226e6f6e65222f3e00000000000000000000000000000000000000000000606082015250565b7f45524337323155524953746f726167653a2055524920736574206f66206e6f6e60008201527f6578697374656e7420746f6b656e000000000000000000000000000000000000602082015250565b7f227d000000000000000000000000000000000000000000000000000000000000600082015250565b7f3c2f746578743e00000000000000000000000000000000000000000000000000600082015250565b7f4552433732313a20617070726f76652063616c6c6572206973206e6f7420746f60008201527f6b656e206f776e6572206e6f7220617070726f76656420666f7220616c6c0000602082015250565b7f4552433732313a206d696e7420746f20746865207a65726f2061646472657373600082015250565b7f2773205265776172647320436172640000000000000000000000000000000000600082015250565b7f4f776e61626c653a2063616c6c6572206973206e6f7420746865206f776e6572600082015250565b7f7b226e616d65223a202200000000000000000000000000000000000000000000600082015250565b7f4552433732313a20696e76616c696420746f6b656e2049440000000000000000600082015250565b7f4552433732313a20617070726f76616c20746f2063757272656e74206f776e6560008201527f7200000000000000000000000000000000000000000000000000000000000000602082015250565b7f646174613a6170706c69636174696f6e2f6a736f6e3b6261736536342c000000600082015250565b7f222c20226465736372697074696f6e223a2022596f757220726577617264204e60008201527f465422202c2022696d616765223a2022646174613a696d6167652f7376672b7860208201527f6d6c3b6261736536342c00000000000000000000000000000000000000000000604082015250565b7f3c7465787420786d6c3a73706163653d2270726573657276652220746578742d60008201527f616e63686f723d2273746172742220666f6e742d66616d696c793d224e6f746f60208201527f2053616e73204a502220666f6e742d73697a653d223234222069643d2273766760408201527f5f312220793d223139302e31393231382220783d2234352e303634323622207360608201527f74726f6b652d77696474683d223022207374726f6b653d22233030302220666960808201527f6c6c3d2223303030303030223e436f6e67726174756c6174696f6e7320796f7560a08201527f2061726520656c696769626c6520666f722072657761726473213c2f7465787460c08201527f3e0000000000000000000000000000000000000000000000000000000000000060e082015250565b7f455243373231456e756d657261626c653a20676c6f62616c20696e646578206f60008201527f7574206f6620626f756e64730000000000000000000000000000000000000000602082015250565b7f4552433732313a2063616c6c6572206973206e6f7420746f6b656e206f776e6560008201527f72206e6f7220617070726f766564000000000000000000000000000000000000602082015250565b7f3c2f7376673e0000000000000000000000000000000000000000000000000000600082015250565b61435a8161359b565b811461436557600080fd5b50565b614371816135ad565b811461437c57600080fd5b50565b614388816135b9565b811461439357600080fd5b50565b61439f81613605565b81146143aa57600080fd5b5056fe4142434445464748494a4b4c4d4e4f505152535455565758595a6162636465666768696a6b6c6d6e6f707172737475767778797a303132333435363738392b2fa2646970667358221220158555d9cc58da546fdb9c31225200e7765542dbc4326ee55bf956a8cb6bdac364736f6c63430008040033",
    "linkReferences": {},
    "deployedLinkReferences": {}
}